:020000040800F2
:1040000054030020B16C00088D4100087D41000878
:104010008141000885410008894100080000000036
:1040200000000000000000000000000091410008B6
:104030009541000800000000994100089D410008DA
:10404000F96C0008F96C0008F96C0008F96C0008BC
:10405000F96C0008F96C0008F96C0008F96C0008AC
:10406000F96C0008F96C0008F96C0008F96C00089C
:10407000F96C0008F96C0008F96C0008F96C00088C
:10408000F96C0008F96C0008F96C0008F96C00087C
:10409000F96C0008F96C0008F96C0008F96C00086C
:1040A000F96C0008A9410008F96C0008F96C0008D7
:1040B000F96C0008F96C0008F96C0008F96C00084C
:1040C000F96C0008F96C0008F96C0008F96C00083C
:1040D000F96C0008F96C0008F96C0008F96C00082C
:1040E000F96C0008F96C0008F96C00080000000089
:1040F00000000000000000000000000000000000C0
:1041000000000000000000005FF808F130B40B4B25
:10411000054618682C4644F8040B988800222B4664
:1041200013F8011B0A44A34292B2F9D1904202D083
:1041300000232B806B8030BC704700BF00BC01089F
:1041400038B50546044602F013FB0A4802F050FB5E
:1041500055F8041B074802F06DFB002114F8013BE1
:104160001944AC4289B2F9D10348BDE8384002F0A5
:1041700091BB00BF00BC010804BC0108FEE700BF02
:10418000FEE700BFFEE700BFFEE700BF704700BFCD
:10419000704700BF704700BF704700BF014800F084
:1041A0000BBC00BF60030020F8B57448012102F089
:1041B0006FFD00B9F8BD7148012102F075FD704B2B
:1041C0001A79002A40F090806E4C6F4E94F86C1172
:1041D00000296AD16D4A37881188C7F5FF4EC1F5AD
:1041E000FF450EF17F0E7F351FFA8EFEADB2684897
:1041F0004FF6FF72B0F900C0B0F90200E64428445F
:10420000644D9645A8BF96469042B8BF02462EEA36
:10421000EE7E22EAE2722846A4F85271A3F800E08A
:104220005A80A4F8541101F089FB2B78DF0755D48C
:10423000C10702D540F00200C0B2DA0648D4C30676
:1042400002D540F02000C0B294F8212094F820302C
:10425000002A94F856210CBF00211021D70728709E
:1042600041EA03032FD4DD0701D543F00203D10651
:1042700024D4DA0601D543F02003474A1843474FB8
:10428000556DC1B284F856313970906D002D46D00D
:10429000C70741D54010135810445D59A8473080D6
:1042A0003748BDE8F84001F0EFBA384847F6FF75E7
:1042B0001146328002801746AE4698E7DA06DCD413
:1042C00043F04003D9E7D907D1D443F00403CEE744
:1042D000C706B9D440F04000C0B2B5E7C207ACD4BD
:1042E00040F00400C0B2A8E72C4A2B4B1178D3F859
:1042F00008220909D3F80C423AB3E00720D5284B2D
:104300006410E558E018AA589047204B18801C48C4
:10431000BDE8F84001F0B8BA02EB6000BEE7C307A1
:10432000B8D45069431C03F00F035361936B1154CD
:1043300002EB4301013303F00F03088B9363AEE7F5
:1043400003F5DA7303EB6400DEE7E507D7D4D3F8AF
:10435000C801421C02F00F02C3F8C821D3F8EC21B7
:104360001C1803EB4200013202F00F02B0F8CC013E
:1043700084F8B411C3F8EC21C7E700BF002C01405A
:104380005803002060030020D4040020D60400203D
:10439000D0040020DC040020E004002054030020AE
:1043A00094060020F8B5134E012240F2ED2130466C
:1043B00001F0DAFB104B0027104C11481F60114D23
:1043C00001F096FA104801F015FA2046FFF79EFE1C
:1043D0003946284600F0EAF905F5DA70012100F0C7
:1043E000E5F92146094800F0A9FD3046BDE8F8404E
:1043F00001F00ABCD804002048080020D0040020A6
:10440000DC040020E00400205803002060030020AA
:1044100008B5FFF7C7FF244C04F5DA75234801F00F
:10442000EBF8224801F00EF9E36D1F4A7BB3A26B53
:10443000E16B013A521A02F00F02072A1A4805D915
:10444000026ED10719D400EB62009847D4F81032FD
:10445000154A23B3D4F8EC21D4F8F011013A521ADA
:1044600002F00F02072A1049D8D9D1F81402C20766
:1044700008D405EB60009847D0E75210115810445B
:10448000CB58E2E740102A582844D358F3E7126E7D
:10449000D007CCD4D4F81032034A002BDAD1D2F8AA
:1044A0001422D107BAD5D5E7E0040020600300202C
:1044B000012A2DE9F00137D0B1F80480B1F800C02D
:1044C0004F88CE880023022101224FEA6808032486
:1044D00047F6FF75A0F87080A0F87CC0A0F87E7049
:1044E000A0F88060A0F8A440A0F8A61080F88C1076
:1044F000A0F86C30A0F87230A0F8AA30A0F8A8306C
:10450000A0F86E5080F88D2080F88E20B0F994309D
:10451000A34206DD0023A0F89430C0F89C30A0F838
:104520009830BDE8F00170470E884D8800230224C2
:1045300047F6FF71A0F87C60A0F87E5080F88C20D0
:1045400080F88D20A0F8A440A0F8A630A0F86C3028
:10455000A0F87030A0F8AA30A0F8A830A0F86E102B
:10456000D4E700BF00F5BA7015F0F6BF00F5BA70D9
:1045700001F078BE012A10B590F8C03004462FD063
:10458000C3B90B884FF4A042A0F8B03088884B889C
:10459000A0F50040A4F8B400C98803EB8303A1F59B
:1045A000004109041B14C4F8B81084F8B230C4F8F0
:1045B000BC2010BD8A884B88A2F500420888A4F868
:1045C000B420CA8803EB8303A2F500424110120411
:1045D0001B14C4F8BC10C4F8B82084F8B23010BD65
:1045E00093B10B884A8803EB83031B14A2F50042A6
:1045F00080F8B230A0F8B42000224FF4A043C4F8F1
:10460000B820C4F8BC3010BD0B8820F8B03F4988F2
:1046100001F074FCF0E700BF014601F11802B03070
:1046200001F07EBCB03001F049BC00BF6C3001F03D
:1046300079BD00BF6C3001F04FBD00BF012AF0B45E
:104640006ED04A88584BD24392B214129E1C33F853
:10465000145036F81440D2B2641B02FB04F20C88EA
:1046600005EB2222C2F34E02251202FB02F233F8BE
:10467000153036F81560E4B2F51A04FB05F4121291
:1046800002FB02F203EB2424CB888D881212C4F3C0
:104690008D04C0F8A4211A04C0F8A041C0F8A851A4
:1046A00026D490F8741100245A0080F8904192B2F8
:1046B000C1B1012180F87411A0F87621A3F500435F
:1046C000002BB8BF5B42A3F5FF531F3B002B23DD3C
:1046D00041F6FE72934265DD4FF6F873C0F8AC31D7
:1046E000F0BC7047B0F87611511A18BF0121E1E70C
:1046F000A3F5004390F874115A00022492B280F896
:10470000904159B9B0F87611511A18BF012180F8BB
:104710007411A0F87621D3E70023DFE70121F6E743
:104720004C88214BE443A4B227129E1C33F8175047
:1047300036F81770E4B27F1B04FB07F70C8805EB13
:104740002721C1F34E01251201FB01F133F8153089
:1047500036F81560E4B2F51A04FB05F4091201FB02
:1047600001F103EB242390F87451C3F38D04091273
:104770000023C0F8A411C0F8A041C0F8A83180F807
:10478000903125B9B0F97621023218BF01224FF6D7
:10479000FE71002380F87421A0F87611C0F8AC31C6
:1047A000F0BC7047DB0099E7E07200080022F8B522
:1047B0004261044602610E46C26308238263E26BD3
:1047C0000020511C01F00F0104EB42021083E16351
:1047D0006269013B551C05F00F059BB2A054656151
:1047E000002BECD12F4F1D467B1958682D4BC1076C
:1047F00044D4EB5804EB600020359847802DF3D16A
:1048000004F1B00001F05AFB04F5BA7504F16C0034
:1048100001F062FC284601F025FD3146214E284674
:10482000002704F14C0501F02DFD0FCE84F84070F7
:1048300084F8417084F8C0700FC596E80F0085E8D1
:104840000F00206DC2071FD404EB6000E36C984793
:10485000A06EC30721D540102258636E2044D35860
:1048600004F1420594F84020294698474A344FF411
:10487000004325F8023BAC42F9D1F8BD4010225864
:10488000EB582044D358B7E740102258E36C20443B
:10489000D3589847A06EC307DDD404EB6000636E65
:1048A000DEE700BF5C6E00082DE9F047064696F88B
:1048B000411190F8400196F84231082286F84411DF
:1048C00086F8430186F8453106F5AC711AB106F554
:1048D000A37002F013FAB6F85091304C4FEA091960
:1048E0002F4B4C449C4206F2431534D90023A6F8C2
:1048F000503101F03DFF2B4C204601F079FF2A4B4F
:1049000004F580649C42F7D1284FDFF8A880254C3D
:10491000B946C4EB050A20465AF80410043401F0E5
:1049200089FF4C45F7D106F24F12002115F8013BE3
:104930001944954289B2F9D1384601F0ABFF40469F
:10494000B6F8501101F0A6FFB6F850310133A6F8C1
:104950005031BDE8F08701F00BFF154B24F47F7058
:104960004B4423F47F7320F0030023F0030309F189
:104970000064834204F5E03407D004F10C0901F02F
:1049800037FF4F4604F10E08C3E7DFF82880074FD2
:10499000C8444F4404F10C09BBE700BF10C0010834
:1049A000FFFF010800C00108000002080CC0010858
:1049B000FFBF01080EC001082DE9F047884D00F542
:1049C0009A762B6804460133304682B02B6001F0A2
:1049D00099F830462246002310F8011B802927D081
:1049E000002942D116691EB1DFB2012F40F2B68014
:1049F0000133042B02F10402EED194F86C31002B48
:104A000040F09A8094F840312A68022BC2F3C21217
:104A10004BD0032B40F0D980012A02D0D31E5A423A
:104A20005A4184F8312194F8423194F8412144E00C
:104A3000D4F82C1104F1280701F1010E07EBC1068F
:104A40004FF004080EF01F0E4FF0000C07F83180F5
:104A50007380C6F804C0C4F82CE129682E6861622E
:104A6000166110F8011C0029BCD07F29C0D1116942
:104A70000029BDD02F68D4F82C6107F1010C04F196
:104A8000280E06F10109C1EB0C0C0EEBC60709F06C
:104A90001F014FF004080EF83680C7F804C07B8071
:104AA000C4F82C1129686162A2E7511E4A424A41AA
:104AB00084F8312194F841311A4603F003030121AF
:104AC000994001A884F83011234600218AB1022AB6
:104AD00025D9032A0DD1B3F95221002AB8BF524279
:104AE00012124254023359B994F842210121002A8A
:104AF000EDD1B3F952210233D21142540029F3D03F
:104B00009DF805209DF8043084F8332184F8323173
:104B100004F5987000F08AFF02B0BDE8F087B3F9A1
:104B2000522140F2991505FB02F2121202F50042E1
:104B3000A2F308224254D5E700230F21012284F872
:104B4000301184F8312184F8323184F8333104F59E
:104B5000987000F06BFF02B0BDE8F087D5F800C098
:104B6000DFF87CE0C6EB0C06B6F5167F7FF740AFAA
:104B7000C7F10107FFB2274497F8347167B994F879
:104B8000576161610136F6B2032E216184F85761E5
:104B900020D010F8011C68E7D4F82C7104F1280823
:104BA00007F1010908EBC70C4FF0040A09F01F09CF
:104BB00008F837A0CCF80460ACF80230C4F82C91A7
:104BC000DEF8006066621161E3E703F0010384F838
:104BD00031316FE784F8571110F8011C45E700BF29
:104BE0004808002070B590F840510646012D43D08A
:104BF00015B33F4C0023A06E84F84030C1072DD57B
:104C000040100259636E2044D35800223949984716
:104C1000D4F81C020023C20784F8F431344B21D5A8
:104C200003F5DA7240108158D3F818321044CB588B
:104C300000223149984770BD2E483146A0F1420408
:104C4000082202F05BF8314604F5FB70082202F0FE
:104C500055F8A06E84F84050C507D1D404EB60002D
:104C6000636ED2E703F5DA7202EB6000D3F8183214
:104C700021490022984770BD314604221D4802F0A8
:104C80003DF8311D0836761A721003D052001A48CA
:104C900002F034F8164C0123A06E84F84030C307AC
:104CA0001BD540100259636E2044D358012211498C
:104CB0009847D4F81C220123D60784F8F4310C4B12
:104CC0000FD503F5DA715210D3F818325458501832
:104CD000E35809490122984770BD04EB6000636EF8
:104CE000E4E703F5DA7000EB6200D3F81832F0E77E
:104CF000E004002022050020D606002090F8403174
:104D00002DE9F047012B154656D9884B4FF4DA743C
:104D100004FB0134864A01EB4503D75C014494F857
:104D2000C03081F84151B91E4842484184F8417071
:104D30006BB960B1C4F84C31C4F8483104F5A471C2
:104D400004F1C803002243F8042B9942FAD1794EAA
:104D500004F14C0506EB471684F8C0000FCE0FC5D2
:104D600096E80F00022F85E80F0008D0206DC207DB
:104D700014D540102258E36C2044D3589847A06EB5
:104D8000C3070FD540102258636E2044D35804F156
:104D9000420194F840209847BDE8F08704EB60009A
:104DA000E36CEBE704EB6000636E04F1420194F8FE
:104DB00040209847BDE8F0875D4E5C4C16F812C065
:104DC00080F8422180F8412194F8C030BCF1020003
:104DD000D0F1000984F841C059EB00091BB9B9F1C1
:104DE000000F40F09280DFF84C81DFF840A108EB23
:104DF0004C1E0AF14C07BEE80F000FC79EE80F00DB
:104E0000BCF1020F84F8C09087E80F0008D0DAF8F0
:104E10005000C10751D4DAF84C300AEB60009847D3
:104E2000A06E424BC20759D54010C1585A6E184463
:104E30008B58DFF8F89094F8402009F1420106EB16
:104E4000450598476F7894F87432B7F1020EDEF199
:104E5000000C84F8F5715CEB0E0C13B9BCF1000F7B
:104E600045D1DFF8C8E008EB47160EF500750FCE08
:104E70000FC596E80F00022F84F874C285E80F0072
:104E800051D0DEF80402C7071FD40EF5DA75DEF83C
:104E9000003205EB60009847D4F81C02234BC6078C
:104EA00020D540102A58D3F818322844D35894F803
:104EB000F42121499847BDE8F087401050F80A20B6
:104EC000DAF84C305044D358A9E740100EF5DA75A3
:104ED0002A58DEF800322844D358DCE703EB6000A0
:104EE0005B6EA6E7D3F8183205EB6000DFE7C9F880
:104EF0000033C9F8FC3209F51F7309F53F79002228
:104F000043F8042B4B45FAD1ABE7C4F84C31C4F855
:104F1000483104F5A47104F1C803002243F8042BBE
:104F20008B42FAD15FE70EF5DA75B5E7E0040020B1
:104F300018A501085C6E0008D60600202DE9F84F80
:104F4000C0F86811074600F5987000F00DFD07F5F0
:104F50009A7000F0A3FD07F59C7000F0C1FB764A43
:104F60003B46116807F1080801311160002223F85F
:104F7000022B9845FAD107F110094346002223F885
:104F8000022B9945FAD107F2611B5B4607F2651ABD
:104F9000002203F8012B5345FAD187F856216748C0
:104FA0004FF4807101F0ECFCD0F1010038BF00201B
:104FB000634D87F86C0107F2431640F2FF3E07F29B
:104FC0004F142B4607CB3346B2603060716000222D
:104FD00013F8011B0A44A34292B2F9D1AB89E989C3
:104FE000934233D0574B103D9D420EF1FF3EE8D126
:104FF0000023A7F8503187F8403187F8413187F80E
:10500000423187F84E3150484FF4005101F0B8FC5E
:1050100040B997F84E31384683F0010387F84E3196
:10502000FFF742FC3846FFF7DDFD3846002197F8D0
:105030004121FFF763FE3846012197F84221FFF72F
:105040005DFE002387F85731BDE8F88F7145C9D15F
:1050500097F8451197F8433197F844010EF1010E86
:10506000082287F84211A7F850E187F8403187F805
:10507000410107F5A371002A48D1023BDBB2012BA5
:10508000C1D84FF4807328F8023BC145F9D1002301
:105090000BF8013BD345FAD12C4C1E4604F5DA7AC5
:1050A0003D4695F8583104EB06091B02A9F8423039
:1050B000A26E264BD1073AD5521052F803E0596E32
:1050C000D0185EF80130DFF8848094F8402008F1B1
:1050D0004201984795F85C311B02A9F8F631D4F8E3
:1050E0001C32DA071ED55B10D8F818225AF80310C4
:1050F0000AEB030051F802C00236154994F8F42176
:10510000E047082E05F10105CBD17CE707F5AC702F
:1051100001F0F4FD97F84031023BDBB2012B3FF682
:1051200072AFAEE7D8F818C20AEB6300E4E703EB0E
:1051300062005B6EC7E700BF48080020000801401E
:10514000F0FF0108F0BF010800100140E00400205A
:10515000D606002090F86C312DE9F04704461BB1CB
:105160004D8845B1BDE8F0874B88032BFAD8DFE8BE
:1051700003F0244E6267D0F86801FEF7E1FF204695
:1051800084F8405184F8415184F8425184F84E51DA
:10519000FFF78AFB2046FFF725FD2046294694F8B5
:1051A0004121FFF7ABFD2046012194F84221FFF792
:1051B000A5FD84F86C51BDE8F0874B68B3F5167F08
:1051C00043DC90F84031012B40F2F68003F00103FC
:1051D000C3F1030380F8403100F1100100F108032E
:1051E0004FF4807223F8022B9942F9D104F2611333
:1051F00004F26511002203F8012B8B42FAD12046FC
:10520000FFF7F0FC2046BDE8F047FFF74DBB90F8F4
:105210004031032B0CBF90F8422190F84121991E98
:105220000132C9B202F00302FFF768FD2046BDE873
:10523000F047FFF739BB002380F82030BDE8F08746
:10524000002380F82130BDE8F08790F84231DFF884
:10525000BC8190F840116A4D18F813C00231BCF1BE
:10526000020695F8C02001F00301D6F1000980F88C
:10527000401180F8413185F841C059EB06097AB9EF
:10528000B9F1000F0CD0C5F84C21C5F8482105F143
:10529000C80305F5A471002243F8042B8B42FAD110
:1052A000584FDFF85CA107EB4C1E0AF14C06BEE834
:1052B0000F000FC69EE80F00BCF1020F85F8C090EA
:1052C00086E80F0008D0DAF85030D80779D4DAF839
:1052D0004C200AEB63009047AA6E494BD10740F17E
:1052E00087805210D658596ED0187358444E95F88E
:1052F000402006F14201984794F8412195F8743214
:1053000008EB420898F801E0BEF1020CDCF100085D
:1053100085F8F5E158EB0C087BB9B8F1000F0CD01B
:10532000C6F80033C6F8FC3206F51F7306F53F7663
:10533000002243F8042BB342FAD1DFF8C4C007EBD4
:105340004E170CF500760FCF0FC697E80F00BEF191
:10535000020F85F8748286E80F004DD0DCF8043225
:10536000D80737D40CF5DA76DCF8002206EB6300B8
:105370009047D5F81C32224AD90734D55B10D2F8B1
:105380001822F158F0188F581F4995F8F421B847A2
:1053900004F1080304F110014FF4807223F8022B8A
:1053A0009942F9D104F2611304F26511002203F865
:1053B000012B8B42FAD122E7C3F1010380F840317F
:1053C0001DE75B1053F80A10DAF84C2003EB0A00D3
:1053D0008A5880E75B100CF5DA76DCF80022F15889
:1053E000F0188A58C4E7D2F8187206EB6300CBE7CE
:1053F00003EB62005B6E79E70CF5DA76B9E700BF84
:10540000E00400205C6E0008D606002018A5010804
:105410002DE9F84390F86C3104460D46FBB14B88FA
:105420004A680344121283F8582190F8593190F8D1
:105430005821803B5B10803A03EBC202D0F8683100
:1054400052421A8090F85B1190F85A218039491025
:10545000803A01EBC20252425A80BDE8F88390F8CC
:105460004031032B45D8DFE803F046790202488833
:105470009A1EC7B207EB8206F6B2264496F8588108
:1054800049685A4BA8EB21281FFA88F81FFA88FCB4
:105490004FF4DA791CF4004F09FB023394F84E21E3
:1054A0001CBFC8F1000C1FFA8CFC42B1204490F8DC
:1054B000612122B90FFA8CFCBCF1020F19DC986E45
:1054C00003EB4707C207A7F842106ED540101958E2
:1054D0005A6E18448F5893F8402003F14201B847A0
:1054E0006B6801221B1286F858316B881C4484F8C3
:1054F0006121BDE8F8833D4E8A78B06E4B6806EBBB
:105500004202C107A2F842304BD540108259736E57
:105510003044D358354F96F8402007F14201984760
:10552000A9786A68D6F81C3206EB4101A1F8F62189
:10553000DA072FD55B1007F5DA72D7F818129F58E3
:1055400098187F5896F8F4212949B8476A886B68FB
:1055500014441B1284F85831BDE8F8834B88234E5D
:10556000012B2DD9023B4968DBB2D6F81C2206EB91
:105570004303A3F8F611D1071BD506F5DA735210D1
:10558000D758D6F81812D0187B5896F8F421184935
:105590009847DBE707F5DA7000EB6300D7F818727D
:1055A000D0E706EB6000736EB4E703EB60005F6E5C
:1055B00091E706F5DA7000EB6200D6F81832E4E7FE
:1055C000B26E496806EB4303D007A3F8421009D531
:1055D00052109159736E9019CB5896F84020054996
:1055E0009847B3E706EB6200736EF6E7E00400202D
:1055F000D6060020220500202DE9F041804682B029
:1056000000F59B77044600262288238937F8025F3D
:1056100099188D42C3EB020202DA954200DD4BB9C4
:1056200040466946ADF802600195FFF7F1FE402360
:10563000258023810136042E04F10204E4D102B056
:10564000BDE8F08130B5D0F82C21D0F8283183B0F6
:10565000D31ADA06044618BF6D4608D12AE022B3F1
:10566000D4F82C21D4F82831D31ADB0622D0D4F870
:10567000283104EBC302283292E8030085E80300D6
:105680009DF80020013303F01F03042AC4F82831D9
:10569000E5D1019BCBB9BDF80230022B1AD0032B08
:1056A000DED1012384F82130DAE720466946FFF78E
:1056B000AFFED5E7094B626A19688A1AB2F57A7F9C
:1056C00001D91B68636203B030BD20466946FFF70D
:1056D00041FDC5E7012384F82030C1E748080020D8
:1056E0002DE9F04393B0012400250F2301A90746BB
:1056F0003C48ADF804308DF806408DF80750DFF8CF
:10570000F09001F0E3F8384800F088FF04264FF4E9
:10571000807C4FF4806E20224FF40053324807A95A
:105720004FF08008CDF834C0CDF838E00F921093D8
:10573000089709950B951195CDF81C900A96CDF810
:10574000308000F0EBFF2146274801F007F827489A
:1057500000F08AFE4FF460224FF40063234802A950
:105760000492059302958DF80C408DF80D408DF84C
:10577000186000F0AFFE22461C480321072300F00A
:10578000FFFE02210A461948072300F0F9FE2146D0
:1057900016480322072300F0F3FE29463246134839
:1057A000072300F0EDFE1148214600F0B7FE0F4838
:1057B00000F0C8FE0D4800F0CBFE0028FAD10B48DF
:1057C00000F0CAFE094800F0CDFE0028FAD10748D3
:1057D000012100F0ADFE0548012100F0C7FE13B025
:1057E000BDE8F083000801400800024000240140A9
:1057F0004C240140F0B5224E87B00746694630463A
:105800004FF48052032410231E4DADF800208DF874
:1058100002408DF8033001F059F8304669464FF4E4
:10582000204218238DF80240ADF8002000248DF8A6
:105830000330022601F04AF84FF4827C4FF4006EE8
:105840004FF400720723284601A9ADF806C0ADF851
:1058500008E0ADF80E20ADF81430ADF80440ADF816
:105860000C40ADF81040ADF81240ADF80A6001F000
:1058700005F92846012101F021F93C7107B0F0BD7E
:10588000000C01400038004010B54FF48051044630
:10589000154801F07FF814484FF4805101F07CF86E
:1058A000237983B121881148091241F4105101F084
:1058B00013F921880D48090201F47F4101F00CF928
:1058C0000023237110BD61880848091241F48051FA
:1058D00001F002F961880548090201F47F4101F0F5
:1058E000FBF80123237110BD000C0140003800407B
:1058F00070B582B0064601A94FF4805301254824B3
:105900000C48ADF804308DF806508DF8074000F0D3
:10591000DDFF4FF4006301A90748ADF804308DF8AE
:1059200006508DF8074000F0D1FF0023337002B01D
:1059300070BD00BF00080140000C014010B50848D0
:1059400001F024F880F40064064801F01FF810F418
:10595000805FC4F3C0240CBF10200020204310BD82
:10596000000C014000080140F0B52D4E89B0012522
:105970006946F02310272B482B4CADF800308DF8EA
:1059800003708DF8025000F0A1FF694630464FF4D5
:1059900080638DF80370ADF800308DF8025000F090
:1059A00095FF0322694630461823ADF800200026F3
:1059B00008278DF803308DF8025000F087FF3F2351
:1059C0002046ADF80830ADF80470ADF80A60ADF8C7
:1059D00006608DF80C6001F03BF9204601A901F04A
:1059E0007DF86023204604A9ADF81030ADF81250C0
:1059F000ADF81660ADF8186001F094F8204639460D
:105A000001F02EF9204604A901F0D4F820463946C9
:105A100001F02EF92046294601F002F909B0F0BD47
:105A2000000C0140000801400004004038B5194D49
:105A3000C17804468908284601F024F9A17828464F
:105A4000890801F021F9627813484FF4806100F071
:105A5000A5FF227805F58235284602F001021021C3
:105A600000F09CFF2278284602F00202202100F07C
:105A700095FF2278284602F00402402100F08EFFB4
:105A80002278284602F008028021BDE8384000F064
:105A900085BF00BF00040040000C014030B5042267
:105AA00083B0FF2101F090F90125482401A91023BA
:105AB0001148ADF804308DF806508DF8074000F01D
:105AC00005FF01A94FF480730C48ADF804308DF840
:105AD00006508DF8074000F0F9FE4FF4C04301A9CD
:105AE00007488DF806508DF80740ADF8043000F0F7
:105AF000EDFE03B030BD00BF000C014000080140C6
:105B000000100140F8B510210446C578134800F094
:105B100037FF6D00EDB22843E0704FF480711048FC
:105B2000A77800F02DFF7F000E4DFFB23843A07024
:105B30004FF400512846267800F022FF7600F6B296
:105B40006378304320704FF4804128465D0000F0B8
:105B500017FFEDB228436070F8BD00BF000C014094
:105B6000000801400010014030B5144685B00D46D4
:105B700000F0B2FB2CB14FF000604FF4804100F018
:105B800069FC44F61D20012100F054FF44F202009C
:105B9000012100F05BFF0120014600F03FFF0121E1
:105BA000174800F001FF4FF4404000F02DFF0024A3
:105BB0001448ADF80850ADF80440ADF80A40ADF80F
:105BC00006408DF80C4001F043F801A90D4800F0A3
:105BD00085FF01210B4801F023F84FF4A06000F08D
:105BE000F7FB1922012368468DF801408DF8024029
:105BF0008DF800208DF8033000F0F4FB05B030BDC7
:105C000000013000002C014070B4084B084A0948DC
:105C1000F0265A60002580F82360072401219D604A
:105C20000A461C60044870BC01F008B810E000E0AF
:105C30003F19010000ED00E0002C0140D0F8A02049
:105C4000F0B42D4C930D34F81310023434F9134092
:105C50000BB2E41AC2F38F1303FB04F4B0F904305F
:105C600001EB244189B2002B8CB224DDC3EB43103D
:105C7000C3EBC020C01324B200F5006000FB04F0A9
:105C80001E4E00F10040850D36F81520023636F91B
:105C9000156015B2751BC0F38F1000FB05F002EB09
:105CA000204212B2141B03FB04F3F0BC01EBE331FE
:105CB00088B200B2704712F1804254BF52006FEABE
:105CC00042020F4F960D37F81650023737F916601B
:105CD00028B2301AC2F38F1202FB00F205EB224504
:105CE0002DB224B22C1B5B4203FB04F3F0BC01EB8E
:105CF000E33188B200B27047109B0108F4840008B9
:105D0000EC7A00088388B0F8B82030B4934233D0DE
:105D1000A3F5004292B2012A31D94FF00061C2F5D9
:105D2000803591FBF2F491FBF5F1C0F8B440C0F876
:105D3000B0101204C0F8AC20A0F8B830D0F8A030F1
:105D4000934210D2D0F8B4201B0B02FB03F330BCFB
:105D5000D80B002BB6BFC0F5FF40A0F500407F3048
:105D600080B200B270479B1AD0F8B0101B0B01FB39
:105D700003F303F10043EAE7D0F8AC20DEE74FF08D
:105D800000644FF40061C0F8B440C0F8B010D0E730
:105D9000B0F90420D0F8A43002F5004212045B00F0
:105DA0009A4204D3D1438B428CBFDB431346D0F8D5
:105DB000A00048F2010147F6FF72834294BF0846F3
:105DC000104600B2704700BFB0F90430D0F8A020F0
:105DD00003F50043C3EB03131B1402339BB24FF6CE
:105DE000FF70002A03F1FF3190FBF1F1ACBF5000CE
:105DF0006FEA4200000C03FB00F089B2000C00FBCC
:105E000001F0A0F5004000B2704700BFD0F8A0201C
:105E1000D0F8A410F0B48A42D0F8BC50D0F8C0300A
:105E20002AD31C462B46E41A550C05FB04F5B0F9A1
:105E30000410ED13002905EB03002BDB1B4E170E9E
:105E4000B51C35F817C036F81750C2F30F22C5EB52
:105E50000C0602FB06F205EB1245C5F34E0505FBE9
:105E600004F403EBE4331B1A01FB03F1F0BC00EB79
:105E7000E13080B200B270470D4D0E4E2C680E49D5
:105E800006FB04F421440C14C0F8BC302960C0F8AF
:105E9000C040C8E701F5FF417F3101FB05F1F0BCCF
:105EA00003EBE13398B200B2704700BF14A30108BE
:105EB000500100200D6619005FF36E3C0E4910B4CE
:105EC000002347F6FF7202240380838083600374FB
:105ED000C0F89C30C0F8983084704161A0F8B820B8
:105EE000C26000F118039830002243F8042B984256
:105EF000FAD15DF8044B704700DC0500090A074B36
:105F0000C1EBC101091210B403EB810433F8212065
:105F10006388827083805DF8044B704720A5010878
:105F20002DE9F04F037C85B004468946904683B93D
:105F30000288664B1112481C53F8200053F8213098
:105F4000D2B2C11A491002FB01F203EBE213C4F80A
:105F5000A430DFF87CA14FF0080B24E0D4F8A010A7
:105F6000D4F8A420A3780A440AEBC3014868C4F813
:105F7000A020C107564A43D452F8333004EB6000E6
:105F80009847E268D8F8243002FB00F0591C0BF166
:105F9000FF3BC21301F00F011BF0FF0B28F8132089
:105FA000C8F8241039D06769D9F810300137676113
:105FB00019F80320013303F00F039007C9F81030DC
:105FC000CCD5237C2BB3434B9F4220D8B7F5F06F41
:105FD00026D2D4F8A830002103EB43021744BF08AF
:105FE0009F426FD04FF0FF32B2FBF7F2C4F8A870B7
:105FF000C4F8A4200023636169B9D4F8A010B1E704
:10600000401052F8333022582044D358B8E70023C8
:106010006361D4F8A420A168A4E705B0BDE8F08FBF
:10602000D4F898200023019304EB820302929F612D
:1060300002F1400C02F120064FF0000E0120039700
:10604000C7B263460025191A03F01F0201F01F01B1
:1060500004EB810104EB820292698969013B511AC8
:106060000029B8BF4942B1EB121F3CBF0135EDB268
:10607000B342E8D1AE4500F101009CBF0197AE46A6
:106080000828DDD1029A019B511C01F01F01039FDA
:10609000CA1AD4F89C3002F01F02FB1A04EB8202E9
:1060A0009269002BB8BF5B42B3EB171FD4F8A8303E
:1060B00038BF17469F42C4F89810C4F89C204FF090
:1060C00001018FD1D4F8A42094E700BFFC8E000812
:1060D00028010020FFDB0500F0B400230325022483
:1060E0004FF480474FF4005647F6FF710122878036
:1060F000468205870585448780F820400380C38059
:106100000382C3878387036343634385838580F862
:1061100040304180818280F8212080F82220F0BC2C
:10612000704700BF01F002032DE9F00303F0FF0503
:10613000002B45D0078FB0F92830BB4203D090F830
:106140004030002B7DD004880023468F1A464485BA
:10615000038503639C461D464FF002084FF001097A
:10616000002E3ED19F4240D003F1080130F811606B
:106170003A49361251F82660034493F82010384B00
:10618000023153F8211030F9197031F80C3031F820
:1061900008C021B2C3EB0C0C02FB0CF203EB124360
:1061A000791AC3F34E0303FB01F304EBE334A4B207
:1061B000354446630563848520B2BDE8F00370472B
:1061C0004C07468F13D596B1B7B2848D3BB2078585
:1061D000078F2A46056303F10109AC4644854FF059
:1061E00002089E42BED1C907BCD50026C4E7056B94
:1061F000436B9D4216D2058DC78F2BB201350133FB
:10620000ADB230F813402BB20022BB424485058565
:10621000026318D094461546078F03F101094FF029
:1062200002089DE74FEA156CB0F928304FEA4C0C94
:106230000CF1020803F10109078F448DC5F30F2209
:106240008EE7848D80E7858F078F2BB2058503F15C
:106250000109944615464FF0020881E7DC6E0008FC
:106260000001002010B5044600F024F800234FF48C
:106270008072012121702377A38084F83C30E26290
:10628000226310BD59B1012904D0836A013B1B026E
:1062900083627047044A054B026283627047044A76
:1062A000024B026283627047101B010800FF7F00EF
:1062B00000930008002310B401224FF484544FF4DB
:1062C00080414480818043618361836002700277F2
:1062D0005DF8044B704700BF3A4B10B419683A4A56
:1062E00041F0010119605C6883B022405A601A686D
:1062F000002122F0847222F480321A601A684FF46E
:106300001F0022F480221A605A6822F4FE025A60AA
:106310009860009101911A6842F480321A6003E09B
:10632000009BB3F5A06F0AD0264B1B6803F4003323
:106330000193009B01330093019B002BF0D0214B74
:106340001B6813F4003318BF01230193019B012B39
:1063500000D0FEE71D4A1B4B116841F0100111608F
:10636000116821F003011160116841F00201116010
:106370005A685A605A685A605A6842F480625A6091
:106380005A6822F47C125A605A6842F4E8125A6041
:106390001A6842F080721A600A4B1A689201FBD5A3
:1063A0005A6822F003025A605A6842F002025A60A8
:1063B000044B5B6803F00C03082BF9D103B05DF8C4
:1063C000044B7047001002400000FFF8002002401C
:1063D00040F0BF60024B40F40030D860704700BF0F
:1063E00000ED00E0C37830B45BB90378012103F01D
:1063F0001F02914030BC5B09144A203342F823103D
:106400007047134B4478DB680F22DB43C3F302234E
:10641000C3F1040122FA03F38C408578017803EA82
:106420000502224301F160431201D2B203F5614338
:1064300083F800230378012103F01F02914030BC50
:10644000024A5B0942F82310704700BF00E100E0F8
:1064500000ED00E021F0604121F07F01014B084395
:106460009860704700ED00E008B5174B984212D0D5
:10647000164B98421BD0164B984200D008BD4FF4E3
:106480000040012100F0EEFABDE808404FF4004062
:10649000002100F0E7BA4FF40070012100F0E2FAA9
:1064A000BDE808404FF40070002100F0DBBA4FF463
:1064B0008060012100F0D6FABDE808404FF480600A
:1064C000002100F0CFBA00BF0024014000280140A5
:1064D000003C014043680A6823F4702330B423F47D
:1064E00080730C79134343EA0423436085688C6806
:1064F000CA68094B22432B404D79134343EA4503B5
:1065000083600B7CC26A013BDBB222F4700242EA78
:106510000353C36230BC7047FDF7F1FF836819B9BC
:1065200023F001038360704743F0010383607047E9
:10653000836819B923F480738360704743F48073D0
:1065400083607047836843F008038360704700BF2F
:106550008068C0F3C0007047836843F00403836021
:10656000704700BF8068C0F380007047836819B926
:1065700023F4A0038360704743F4A0038360704753
:10658000092970B41FD9A1F10A0404EB44040726B9
:10659000A64003FA04F4C568062A25EA060343EA7E
:1065A0000403C3601DD90C2A29D970BC0D3A02EB33
:1065B00082021F23934001FA02F2C16A21EA030317
:1065C0001A43C262704701EB41040726A64003FA52
:1065D00004F40569062A25EA060343EA0403036175
:1065E000E1D870BC013A02EB82021F23934001FA0A
:1065F00002F2416B21EA03031A4342637047073AF0
:1066000002EB82021F23934070BC01FA02F2016B7D
:1066100021EA03031A430263704700BF0168324A4C
:10662000002321F001019042016003604360836018
:10663000C36044D02D4B984225D02D4B984230D08A
:106640002C4B984234D02C4B984223D02B4B984261
:106650003BD02B4B98420FD02A4B98423CD02A4B30
:10666000984210D0294B98421BD0294B98421FD0FA
:10667000284B98420ED0704753F87C2C42F0706241
:1066800043F87C2C704753F8182C42F0F00243F882
:10669000182C704753F8542C42F4702243F8542CB1
:1066A000704753F82C2C42F4706243F82C2C70473E
:1066B00053F8402C42F4704243F8402C7047164B7C
:1066C0005A6842F00F025A60704753F8682C42F43F
:1066D000700243F8682C704753F8042C42F00F0204
:1066E00043F8042C704700BF080002401C00024021
:1066F0003000024044000240580002406C0002405A
:1067000080000240080402401C04024030040240A1
:106710004404024058040240000002408A68F0B479
:106720000C6A0B6914434A691C438B69CE69224386
:1067300007684D6A13438C6A1E43354327F4FF43B1
:10674000CE680F684A682C4323F07003234303602C
:1067500046608760C260F0BC704700BF036819B92B
:1067600023F001030360704743F0010303607047A7
:10677000024B0349034A59605A60704700200240A7
:1067800023016745AB89EFCD084BDA68D1070BD4FD
:10679000DA68520701D502207047DB6813F0100F4A
:1067A0000CBF0420032070470120704700200240E6
:1067B00010B582B00446FFF7E7FF012812D1A4B15B
:1067C000FF23002201920193019B2BB1019B013B0E
:1067D0000193019B002BF9D1FFF7D6FF012804F1AB
:1067E000FF34ECD00CB102B010BD052002B010BDDA
:1067F00038B5054640F6FF70FFF7DAFF042800D0F1
:1068000038BD0B4C40F6FF70236943F0020323614F
:106810006561236943F040032361FFF7C9FF052841
:10682000EED0226941F6FD731340236138BD00BFED
:106830000020024070B5002382B005460F200C46B0
:106840000193FFF7B5FF042801D002B070BD104ED0
:10685000A3B232690F2042F0010232612B80FFF7B0
:10686000A7FF042808D00528EFD0326941F6FE734F
:106870001340336102B070BD02350195019B240CB9
:106880001C800F20FFF794FF0528EED1DDE700BF45
:106890000020024070B504460F200D46FFF788FF28
:1068A000042800D070BD084E0F20336943F0010367
:1068B00033612580FFF77CFF0528F3D0326941F66C
:1068C000FE731340336170BD00200240F0B4CD78F8
:1068D000EB0648BF8B78098805F00F0648BF1E43BA
:1068E00011F0FF0F20D00768002302E00133082BCE
:1068F00019D001229A4002EA01049442F6D19A008A
:106900004FF00F0C0CFA02FC06FA02F227EA0C0711
:10691000282D47EA020731D0482D03F1010308BFB3
:106920000461082BE5D10760FF2923D947680023BC
:1069300002E00133082B1CD0012403F1080204FA01
:1069400002F202EA01049442F3D19A004FF00F0CD4
:106950000CFA02FC06FA02F227EA0C07282D47EA95
:10696000020709D0482D03F1010308BF0461082B79
:10697000E2D14760F0BC70474461DAE74461B5E7B3
:10698000836819420CBF002001207047806880B2E4
:10699000704700BF01617047416170470AB94161AA
:1069A00070470161704700BF30B4164A00F44014CC
:1069B000B4F5401F85B253681CD0C20211D5C0F394
:1069C0000342032404FA02F223EA020343F0706351
:1069D00019B1400D000185402B430A4A30BC536079
:1069E0007047420D120105FA02F223EA020343F056
:1069F0007063EDE7546823F0706324F070645460B2
:106A0000E6E700BF00000140034B5A6822F4404211
:106A100010435860704700BF00100240044B5A6991
:106A200019B922EA00005861704710435861704755
:106A300000100240044B9A6919B922EA00009861DB
:106A4000704710439861704700100240044BDA69A8
:106A500019B922EA0000D86170471043D861704725
:106A600000100240044BDA6819B922EA0000D8602D
:106A700070471043D860704700100240F0B40B8894
:106A80004C888A881C43CB8814430A891C434B8951
:106A90008F8922430588CE891A433A43324305F44D
:106AA000415313439BB20380838B0A8A23F4006310
:106AB0001B041B0C8383F0BC02827047038829B936
:106AC00023F040031B041B0C038070479BB243F070
:106AD00040030380704700BF81817047038830B452
:106AE00003F08F0303800588CA884B88ADB2154335
:106AF0001D430B4B8C880A88ADB298420580848573
:106B0000028507D003F50063984203D030BC01230F
:106B1000838270470B7A30BC0386012383827047DF
:106B2000002C0140038CF0B423F480731B041B0C75
:106B30000384028C0D8922F4007284881204838BF2
:106B4000120C42EA05224F8823F07303184D1B04F0
:106B50000E8842EA07221B0CA84292B2A4B243EA72
:106B600006030AD005F50065A84206D0C9888480CE
:106B70008383F0BC81870284704722F40062B1F8FD
:106B80000AC092B244F6FF768F8942EA0C2C264066
:106B90004FF6FF358A88CC890CEA050546EA0716C8
:106BA00045EA022246EA041492B2A4B2DEE700BF2C
:106BB000002C0140038CF0B423F480531B041B0C05
:106BC0000384028C848822F40052838B0D89120482
:106BD00023F4E643120C42EA05324F881B040E8868
:106BE0000E4D1B0C42EA073243EA0623A84292B23A
:106BF000A4B29BB20BD005F50065A84207D0C988A6
:106C000084808383F0BCA0F84010028470478D8993
:106C1000C4F30D0444EA8514A4B2F0E7002C01404B
:106C2000038829B923F001039B059B0D038070475E
:106C30009BB243F001030380704700BF83899BB27E
:106C40001AB923EA01018181704719438181704794
:106C5000038923F007031B041B0C0381704700BF4B
:106C6000838B23F008031B041B0C1943818370479B
:106C7000838B23F400631B041B0C43EA01218BB2BA
:106C80008383704781877047A0F84010704700BF2A
:106C9000038A828911EA030092B203D011420CBF29
:106CA00000200120704700BFC94389B201827047AC
:106CB000002100F004B80B4B5B58435004310A48E4
:106CC0000A4B42189A42FFF4F6AF094A00F003B8A3
:106CD000002342F8043B074B9A42FFF4F9AFFDF75B
:106CE00097FB704768A501080000002054010020B0
:106CF000540300204C080020FFF7FEBF8842F0B488
:106D000010D98C18A0420DD28518531E42B12146CD
:106D10002A4611F8014D013B02F8014D5C1CF8D1E7
:106D2000F0BC70470F2A44D940EA01039B0744D1C5
:106D3000A2F110073F0900EB071610360C46034678
:106D40002568103343F8105C6568103443F80C5C18
:106D500054F8085C43F8085C54F8045C43F8045C9D
:106D6000B342EDD17B1C02F00F0C1B01BCF1030FF1
:106D70001944034423D90E461D46644656F8047B45
:106D8000043C032C45F8047BF8D8ACF1040424F04F
:106D90000304043402F0030223442144002ABFD038
:106DA0001A4411F8014B03F8014B9342F9D1F0BC9E
:106DB00070470346002AF3D1B2E70346F0E7624684
:106DC000002AEDD1ACE700BFF0B4840743D0541ED5
:106DD000002A3ED0CDB2034603E0621E002C38D01C
:106DE000144603F8015B9A07F7D1032C2AD9CDB2D8
:106DF00045EA05250F2C45EA054515D9A4F11007EC
:106E00003F0903F1100606EB07161A461560556098
:106E10009560D5601032B242F8D104F00F0401370A
:106E2000032C03EB07130DD91E462246043A032A0E
:106E300046F8045BFAD8221F22F0030204321344FE
:106E400004F003042CB1C9B21C4403F8011BA34293
:106E5000FBD1F0BC704714460346C6E73546000830
:106E6000000000002D4600080000000000000000A7
:106E700000000000B14400080000000025460008A2
:106E8000000000000000000000000000194600089B
:106E900000000000754500080000000025460008BD
:106EA000000000000000000000000000194600087B
:106EB0000000000075450008000000006D45000856
:106EC0000000000065450008000000000000000010
:106ED000000000003D46000800000000AAAAAA0A1F
:106EE0001109AB092311C7087660FB077B0A450728
:106EF000E986A106FDA20E0616758A054452130501
:106F000079C5A7040E8846046D7BEE03A9A39E03F2
:106F1000E122560354351403F82DD8029973A102C7
:106F2000567E6F027BD54102A20D180215C7F101F2
:106F30006CACCE014C71AE0163D19001708F7501C4
:106F40007A745C011B4F4501DEF22F01B4371C013E
:106F500079F909018B17F9006574E9004FF5DA003A
:106F60001282CD00B404C1003F69B5008E9DAA0015
:106F70001D91A000DE349700187B8E0044578600D8
:106F8000EDBD7E009DA47700BC01710082CC6A003B
:106F9000E2FC6400778B5F0078715A00A5A8550069
:106FA000402B510000F44C0005FE4800D144450040
:106FB0003CC4410074783E00EC5D3B0060713800D9
:106FC000C7AF35005116330067A230009C512E0028
:106FD000B5212C009E102A00671C2800444326007F
:106FE0008B832400ACDB2200354A2100CDCD1F006D
:106FF00030651E00330F1D00BCCA1B00C6961A0068
:107000005C721900975C1800A3541700B75916005A
:10701000166B15001188140003B0130051E2120022
:107020006B1E1200C7631100E7B110005208100078
:1070300097660F004BCC0E000C390E007AAC0D0099
:107040003E260D0004A60C007D2B0C0060B60B0044
:1070500066460B004FDB0A00DA740A00CE120A0003
:10706000F4B40900175B0900050509008FB2080098
:107070008A630800CB1708002BCF0700848907001C
:10708000B2460700940607000BC90600F68D0600FD
:107090003B550600BD1E060063EA050014B8050056
:1070A000B88705003B590500862C050085010500C1
:1070B00027D8040057B00400068A040023650400A2
:1070C0009E410400681F040074FE0300B4DE030048
:1070D0001AC003009CA203002C860300C06A0300B0
:1070E0004E500300CB3603002E1E03006D06030036
:1070F0007FEF02005DD90200FDC3020059AF02001C
:107100006A9B0200278802008A7502008E630200D3
:107110002B5202005D4102001C3102006521020079
:10712000311202007C03020041F501007CE70100FE
:1071300028DA010041CD0100C3C00100ABB4010059
:10714000F4A801009B9D01009D920100F7870100BA
:10715000A47D0100A3730100F16901008A600100B0
:107160006D570100964E010003460100B23D01003B
:10717000A1350100CD2D010034260100D41E0100EF
:10718000AC170100B9100100FA0901006D030100FC
:1071900010FD0000E2F60000E2F000000DEB000040
:1071A00062E50000E0DF000086DA000052D5000052
:1071B00043D0000058CB000090C60000E9C1000099
:1071C00064BD0000FDB80000B6B400008CB0000043
:1071D0007FAC00008DA80000B7A40000FBA0000059
:1071E000589D0000CE9900005C96000000930000BE
:1071F000BC8F00008D8C0000738900006E8600003B
:107200007C8300009E800000D37D0000197B00007D
:1072100072780000DC75000056730000E07000001A
:107220007A6E0000246C0000DC690000A367000097
:10723000776500005A63000049610000465F000066
:107240004E5D0000635B000084590000B1570000F0
:10725000E85500002A54000077520000CF5000008B
:10726000304F00009B4D00000F4C00008D4A000085
:1072700014490000A34700003B460000DB44000027
:107280008343000033420000EB400000AA3F0000AF
:10729000713E00003E3D0000123C0000ED3A00004F
:1072A000CF390000B7380000A5370000993600003C
:1072B000943500009334000099330000A43200009C
:1072C000B4310000CA300000E42F0000042F000099
:1072D000282E0000512D00007E2C0000B02B000055
:1072E0000001010102010401050107010801090172
:1072F0000B010C010E010F01110112011401150106
:10730000170118011A011B011D011E012001210195
:10731000230125012601280129012B012D012E0120
:107320003001320133013501370138013A013C01A6
:107330003D013F01410143014401460148014A0129
:107340004B014D014F0151015301550156015801A7
:107350005A015C015E01600162016401660168011D
:107360006A016C016D016F01710173017501780192
:107370007A017C017E0180018201840186018801FD
:107380008A018C018F0191019301950197019A0166
:107390009C019E01A001A301A501A701A901AC01C7
:1073A000AE01B001B301B501B701BA01BC01BF0123
:1073B000C101C401C601C801CB01CD01D001D20178
:1073C000D501D801DA01DD01DF01E201E501E701C4
:1073D000EA01EC01EF01F201F501F701FA01FD010B
:1073E00000020202050208020B020E021002130242
:1073F000160219021C021F022202250228022B0279
:107400002E023102340237023A023D0240024302A8
:1074100047024A024D025002530257025A025D02CD
:107420006002640267026A026E02710274027802EC
:107430007B027F028202860289028D029002940200
:1074400097029B029F02A202A602AA02AD02B1020B
:10745000B502B902BC02C002C402C802CC02D0020A
:10746000D402D802DB02DF02E302E702EB02F00201
:10747000F402F802FC020003040308030D031103E5
:10748000150319031E03220326032B032F033403C2
:1074900038033D03410346034A034F035303580394
:1074A0005D03610366036B036F03740379037E035B
:1074B000830388038C03910396039B03A003A50316
:1074C000AB03B003B503BA03BF03C403CA03CF03BE
:1074D000D403D903DF03E403EA03EF03F403FA035D
:1074E000000405040B04100416041C0421042704E2
:1074F0002D04330438043E0444044A045004560462
:107500005C04620468046E0475047B0481048704CF
:107510008E0494049A04A104A704AE04B404BB042A
:10752000C104C804CF04D504DC04E304E904F00476
:10753000F704FE0405050C0513051A0521052805A9
:107540002F0537053E0545054D0554055B056305CB
:107550006A05720579058105890590059805A005DC
:10756000A805B005B705BF05C705CF05D705E005D8
:10757000E805F005F8050106090611061A062206B7
:107580002B0633063C0645064D0656065F06680682
:1075900071067A0683068C0695069E06A706B00637
:1075A000BA06C306CC06D606DF06E906F306FC06D5
:1075B00006071007190723072D07370741074B0751
:1075C000560760076A0774077F07890794079E07B5
:1075D000A907B307BE07C907D407DE07E907F40701
:1075E00000080B08160821082C08380843084F0823
:1075F0005A08660871087D0889089508A108AD0831
:10760000B908C508D108DD08EA08F60803090F091A
:107610001C092809350942094F095C0969097609DD
:10762000830990099E09AB09B809C609D309E10984
:10763000EF09FD090B0A180A270A350A430A510AFD
:107640005F0A6E0A7C0A8B0A9A0AA80AB70AC60A57
:10765000D50AE40AF30A020B120B210B310B400B83
:10766000500B600B6F0B7F0B8F0B9F0BAF0BC00B87
:10767000D00BE00BF10B020C120C230C340C450C5C
:10768000560C670C780C8A0C9B0CAD0CBE0CD00C05
:10769000E20CF40C060D180D2A0D3C0D4F0D610D7A
:1076A000740D870D990DAC0DBF0DD20DE60DF90DC2
:1076B0000C0E200E330E470E5B0E6F0E830E970ED0
:1076C000AC0EC00ED40EE90EFE0E130F280F3D0FA8
:1076D000520F670F7D0F920FA80FBD0FD30FE90F49
:1076E0000010000000000B040608F10BCD0F9A13E8
:1076F0005717061BA61E3822BB253129982CF32FBD
:1077000040338036B339D93CF33F00430146F74854
:10771000E14BBF4E915159541657C7596E5C0B5FE0
:107720009D612564A2661669806BE16D3870867272
:10773000CB7407773A79647B857D9E7FAF81B88370
:10774000B885B187A1898A8B6C8D468F1991E49297
:10775000A89466961C98CB99749B179DB29E48A0DE
:10776000D7A160A3E3A460A6D7A748A9B3AA19AC80
:1077700079ADD4AE29B07AB1C4B20AB44BB587B6EC
:10778000BDB7F0B81DBA45BB69BC89BDA4BEBBBFBF
:10779000CDC0DBC1E5C2EBC3ECC4EAC5E4C6DAC7C1
:1077A000CCC8BAC9A5CA8CCB6FCC4FCD2CCE05CFD7
:1077B000DACFADD07CD147D210D3D6D398D458D518
:1077C00014D6CED685D739D8EAD898D944DAEDDAA6
:1077D00093DB37DCD8DC77DD13DEADDE45DFDADFC7
:1077E0006DE0FDE08CE118E2A2E229E3AFE333E4CF
:1077F000B4E434E5B1E52DE6A7E61FE795E709E82F
:107800007BE8ECE85BE9C8E933EA9DEA05EB6BEB62
:10781000D0EB34EC96ECF6EC55EDB2ED0EEE68EEF6
:10782000C1EE19EF6FEFC4EF18F06AF0BCF00BF186
:107830005AF1A7F1F3F13EF288F2D1F219F35FF3B6
:10784000A4F3E9F32CF46EF4AFF4EFF42FF56DF537
:10785000AAF5E6F522F65CF695F6CEF606F73DF7C4
:1078600073F7A8F7DCF710F842F874F8A6F8D6F822
:1078700006F935F963F990F9BDF9E9F915FA3FFA16
:1078800069FA93FABCFAE4FA0BFB32FB58FB7EFB75
:10789000A3FBC8FBECFB0FFC32FC54FC76FC98FC11
:1078A000B8FCD9FCF8FC18FD36FD55FD73FD90FDC4
:1078B000ADFDC9FDE5FD01FE1CFE37FE51FE6BFE70
:1078C00085FE9EFEB6FECFFEE7FEFEFE16FF2CFFF7
:1078D00043FF59FF6FFF84FF9AFFAEFFC3FFD7FF3F
:1078E000EBFFFFFFFFFF00000000000000000000B2
:1078F0000000000000000000000000000100010086
:1079000002000300040005000600080009000B0047
:107910000E0010001300160019001D0021002500A4
:107920002A00300035003B00420049005100590058
:1079300062006B00750080008B009700A400B1000E
:10794000BF00CE00DE00EE0000011201250139016A
:107950004E0163017A019201AB01C501E001FC0116
:1079600019023702570277029902BC02E1020703AB
:107970002E0356038003AB03D803060435046704C3
:107980009904CE0403053B057405AF05EB052906F4
:107990006906AB06EF0634077C07C50710085D08CB
:1079A000AC08FE085109A609FD09570AB30A110BD4
:1079B000710BD30B380C9F0C080D740DE20D530E98
:1079C000C60E3B0FB30F2E10AB102B11AD113212A0
:1079D000BA124513D2136214F5148B152416C0166F
:1079E0005F170018A5184D19F819A61A571B0B1C7C
:1079F000C31C7E1D3C1EFD1EC21F8A20562125224F
:107A0000F722CD23A72484256526492731281D295F
:107A10000D2A002BF72BF32CF12DF42EFB2F063122
:107A2000153228333F345A3579369D37C438F0390A
:107A3000213B553C8E3DCC3E0D4054419E42EE4391
:107A400042459A46F7475949C04A2B4C9C4D114F25
:107A50008A5009528D531555A3563658CE596B5B33
:107A60000D5DB45E60601262C963866548670F6928
:107A7000DB6AAD6C856E627045722E741C760F7871
:107A8000097A087C0E7E1980298240845D86808870
:107A9000A98AD88C0D8F48918993D1951F98739A94
:107AA000CE9C2F9F96A104A479A6F3A875ABFDAD3B
:107AB0008CB021B3BEB561B80ABBBBBD73C031C3C6
:107AC000F6C5C3C896CB71CE53D13CD42CD723DA9C
:107AD00022DD28E035E34AE666E989ECB4EFE7F217
:107AE00022F663F9ADFCFFFFFFFF00000180BE81BD
:107AF00077832A85D7868088248AC38B5D8DF28E12
:107B000083900E929593189595960E988399F39A73
:107B10005E9CC69D299F87A0E1A138A389A4D7A513
:107B200021A767A8A8A9E6AA20AC56AD88AEB6AF33
:107B3000E1B007B22AB34AB466B57EB693B7A4B82B
:107B4000B2B9BCBAC3BBC7BCC7BDC4BEBEBFB4C05C
:107B5000A8C198C285C36FC456C53AC61BC7F9C72A
:107B6000D5C8ADC982CA55CB25CCF2CCBDCD84CE0B
:107B700049CF0CD0CCD089D143D2FCD2B1D365D47B
:107B800015D5C4D570D619D7C1D766D809D9A9D902
:107B900047DAE3DA7DDB15DCABDC3EDDD0DD5FDE32
:107BA000EDDE78DF02E089E00FE193E115E294E297
:107BB00013E38FE309E482E4F9E46EE5E2E554E6D9
:107BC000C4E633E7A0E70BE875E8DDE843E9A9E997
:107BD0000CEA6EEACFEA2EEB8CEBE8EB43EC9DEC83
:107BE000F5EC4CEDA1EDF5ED48EE9AEEEAEE39EF4D
:107BF00087EFD4EF1FF06AF0B3F0FBF041F187F1AB
:107C0000CCF10FF252F293F2D3F213F351F38EF35D
:107C1000CBF306F440F47AF4B2F4E9F420F556F527
:107C20008BF5BEF5F1F524F655F686F6B5F6E4F6D5
:107C300012F740F76CF798F7C3F7EDF717F840F82D
:107C400068F88FF8B6F8DCF802F926F94AF96EF907
:107C500091F9B3F9D5F9F6F916FA36FA55FA74FA34
:107C600092FAAFFACCFAE9FA05FB20FB3BFB56FB94
:107C700070FB89FBA2FBBBFBD3FBEAFB02FC18FCFD
:107C80002FFC44FC5AFC6FFC84FC98FCACFCBFFC51
:107C9000D2FCE5FCF7FC09FD1BFD2CFD3DFD4DFD77
:107CA0005EFD6DFD7DFD8CFD9BFDAAFDB8FDC6FD55
:107CB000D4FDE1FDEFFDFCFD08FE15FE21FE2DFECD
:107CC00038FE43FE4FFE59FE64FE6FFE79FE83FED2
:107CD0008CFE96FE9FFEA8FEB1FEBAFEC2FECBFE53
:107CE000D3FEDBFEE3FEEAFEF2FEF9FE00FF07FF35
:107CF0000EFF14FF1BFF21FF27FF2DFF33FF39FF6E
:107D00003EFF44FF49FF4EFF53FF58FF5DFF62FFF8
:107D100066FF6BFF6FFF73FF78FF7CFF7FFF83FFC2
:107D200087FF8BFF8EFF92FF95FF98FF9BFF9FFFC2
:107D3000A2FFA5FFA7FFAAFFADFFB0FFB2FFB5FFEF
:107D4000B7FFB9FFBCFFBEFFC0FFC2FFC4FFC6FF45
:107D5000C8FFCAFFCCFFCEFFCFFFD1FFD3FFD4FFB8
:107D6000D6FFD7FFD9FFDAFFDBFFDDFFDEFFDFFF46
:107D7000E0FFE1FFE3FFE4FFE5FFE6FFE7FFE8FFE9
:107D8000E9FFE9FFEAFFEBFFECFFEDFFEDFFEEFFA0
:107D9000EFFFF0FFF0FFF1FFF1FFF2FFF3FFF3FF62
:107DA000F4FFF4FFF5FFF5FFF6FFF6FFF6FFF7FF30
:107DB000F7FFF8FFF8FFF8FFF9FFF9FFF9FFFAFF07
:107DC000FAFFFAFFFAFFFBFFFBFFFBFFFBFFFCFFE5
:107DD000FCFFFCFFFCFFFCFFFDFFFDFFFDFFFDFFC7
:107DE000FDFFFDFFFEFFFEFFFEFFFEFFFEFFFEFFAD
:107DF000FEFFFEFFFEFFFEFFFFFFFFFFFFFFFFFF97
:107E0000FFFFFFFFFFFFFFFFFFFFFFFFFFFFFFFF82
:107E1000FFFFFFFFFFFFFFFFFFFF0000000000006C
:107E20000000000000000000000000000000000052
:107E30000000000000000000000000000000000042
:107E40000000000000000000000000000000000032
:107E50000000000000000000000000000000000022
:107E60000000000000000000000000000000000012
:107E70000000000000000000000000000000000002
:107E800000000000000000000000000000000000F2
:107E900000000000000000000000000000000000E2
:107EA00000000000000000000000000000000000D2
:107EB00000000000000000000000000000000000C2
:107EC00000000000000000000000000000000000B2
:107ED00000000000000000000000000000000000A2
:107EE0000000000000000000000000000000000092
:107EF0000000000000000000000000000000000082
:107F00000000000000000000000000000000000071
:107F10000000000000000000000000000000000061
:107F20000000000000000000000000000000000051
:107F30000000000000000000000000000000000041
:107F40000000000000000000000000000000000031
:107F50000000000000000000000000000000000021
:107F60000000000000000000000000000000000011
:107F70000000000000000000000000000000000001
:107F800000000000000000000000000000000000F1
:107F900000000000000000000000000000000000E1
:107FA00000000000000000000000000000000000D1
:107FB00000000000000000000000000000000000C1
:107FC00001000100010001000100010001000100A9
:107FD0000100010001000100010001000100010099
:107FE0000100020002000200020002000200020082
:107FF000020002000200030003000300030003006C
:10800000030004000400040004000400050005004F
:108010000500050006000600060006000700070030
:108020000700080008000800090009000A000A000B
:108030000A000B000B000C000C000D000D000E00E0
:108040000F000F00100010001100120013001300A9
:1080500014001500160017001700180019001A0068
:108060001B001C001D001F00200021002200230017
:1080700025002600270029002A002C002D002F00B3
:10808000310032003400360038003A003C003E0037
:10809000400042004400470049004B004E005000A1
:1080A0005300560059005B005E00610065006800E7
:1080B0006B006E007200750079007D008100840005
:1080C00088008D00910095009A009E00A300A800F2
:1080D000AD00B200B700BC00C200C700CD00D300A5
:1080E000D900DF00E500EC00F200F9000001070113
:1080F0000E0116011D0125012D0135013E0146012C
:108100004F01580161016A0174017D0187019101EC
:108110009C01A701B101BD01C801D301DF01EB0141
:10812000F801040211021F022C023A024802560210
:108130006502740283029302A202B302C302D40254
:10814000E502F70209031B032E03410354036803EE
:108150007C039103A603BC03D103E803FE031604CA
:108160002D0445045E0477049004AA04C504E004C9
:10817000FB041705340551056E058C05AB05CA05D2
:10818000EA050A062B064D066F069206B606DA06C3
:10819000FE0624074A0771079807C007E907130876
:1081A0003D0868089408C008EE081C094B097A09C4
:1081B000AB09DC090F0A420A750AAA0AE00A170B82
:1081C0004E0B860BC00BFA0B350C720CAF0CED0C82
:1081D0002D0D6D0DAE0DF10D340E790EBF0E050F88
:1081E0004D0F960FE10F2C107910C7101611661164
:1081F000B8110B125F12B4120B136313BD131814D2
:108200007414D21431159215F4155716BD16231790
:108210008B17F5176018CD183C19AC191E1A921A55
:10822000071B7E1BF71B711CED1C6C1DEB1D6D1ECF
:10823000F11E771FFE1F88201321A1213022C222A8
:108240005523EB2383241D25B9255726F7269A2786
:108250003F28E72890293C2AEB2A9B2B4F2C042D02
:10826000BD2D772E342FF42FB7307C3143320E33AF
:10827000DB33AB347E3553362B370738E538C63918
:10828000AA3A913B7B3C683D583E4C3F42403C41C2
:10829000394239433D4444454E465C476D48824926
:1082A0009A4AB64BD64CF94D1F4F4A507851AA52B4
:1082B000E0531A5558569957DF58295A775BC85CCE
:1082C0001F5E795FD7603A62A2630D657D66F267D3
:1082D0006B69E86A6B6CF26D7D6F0E71A3723D7411
:1082E000DC7580772979D67A897C427E427E0000CF
:1082F000FEFF0EC0F5B3D9AB92A562A0ED9BFE9731
:10830000779440914B8E8E8BFE88968651842A827C
:108310001E802B7E4C7C817AC87820778675FA7314
:108320007A7207719E6F406EEB6C9F6B5C6A20697E
:10833000ED67C0669A657B6461634E624061376039
:10834000335F345E3A5D445C535B655A7C599658A2
:10835000B457D556FA5522554D547B53AC52E05183
:10836000175150508D4FCB4E0C4E4F4D954CDD4B11
:10837000274B734AC24912496448B8470E476646BC
:10838000C0451B457844D74337439942FC4161417E
:10839000C7402F40983F033F6E3EDC3D4A3DBA3C0C
:1083A0002B3C9D3B103B853AFB397139E9386238EB
:1083B000DC375737D4365136CF354E35CE344F347F
:1083C000D1335433D7325C32E1316831EF3077301A
:1083D000FF2F892F132F9E2E2A2EB72D442DD22CFE
:1083E000612CF12B812B122BA32A352AC8295C2959
:1083F000F02885281A28B0274727DE2676260E265D
:10840000A7254125DB2475241124AC234923E5222B
:1084100083222122BF215E21FD209D203D20DE1FE1
:108420007F1F211FC31E661E091EAC1D501DF51C9B
:10843000991C3F1CE41B8A1B311BD81A7F1A271A70
:10844000CF1977192019CA1873181D18C817731770
:108450001E17C91675162116CE157B152815D614AC
:1084600083143214E0138F133E13EE129E124E1239
:10847000FF11AF1161111211C41076102810DB0F1B
:108480008E0F410FF40EA80E5C0E110EC50D7A0D65
:108490002F0DE50C9A0C500C060CBD0B740B2B0B1E
:1084A000E20A990A510A090AC1097A093309EC0852
:1084B000A5085E081808D2078C0746070107BC0606
:1084C00077063206EE05A90565052105DE049A0446
:1084D00057041404D1038F034C030A03C802870214
:1084E00045020402C201810141010001C0007F0078
:1084F0003F000000018016802A80408055806A80FD
:1085000080809680AC80C380D980F08007811E81F6
:1085100036814D8165817D819481AC81C481DD810D
:10852000F5810D8225823E8256826E8286829F82EE
:10853000B782CF82E782FE8216832D8344835B83DA
:10854000728389839F83B583CB83E083F5830A8419
:108550001E843284468459846C847E849084A284F0
:10856000B384C484D484E484F384028511851F8594
:108570002D853A854785548560856C857885848509
:108580008F859A85A585B085BA85C585D085DB851B
:10859000E585F085FC85078613861F862B86398640
:1085A000468654866386738683869586A786BA86B2
:1085B000CF86E586FB8614872D8748876587838766
:1085C000A287C487E7870C8833885C888788B4884B
:1085D000E288138947897C89B489ED89298A688A68
:1085E000A88AEB8A308B778BC18B0C8C5A8CAA8C27
:1085F000FC8C508DA68DFE8D588EB38E108F6F8F94
:10860000CF8F31909390F7905C91C2912992909284
:10861000F7925F93C7932F949794FE946595CB95AB
:1086200030969496F7965897B89716987198CB9875
:1086300022997799C899179A639AAB9AF09A319BC5
:108640006F9BA99BDE9B109C3D9C669C8B9CAA9C6F
:10865000C69CDC9CEE9CFB9C049D079D069D009D9A
:10866000F69CE69CD39CBA9C9E9C7D9C589C2F9C1F
:10867000039CD39B9F9B689B2F9BF39AB59A749AFC
:10868000329AEE99AA9965991F99D9989498509819
:108690000D98CB978C974F971697DF96AD967F9650
:1086A000569632961396FB95EA95DF95DC95E19503
:1086B000EF95059624964D967F96BC960397569710
:1086C000B3971C98919811999E99379ADC9A8D9B33
:1086D0004C9C169DEE9DD29EC29FBFA0C8A1DDA25C
:1086E000FEA32BA563A6A7A7F5A84DAAAFAB1BAD0C
:1086F0008FAE0CB091B11DB3AFB448B6E6B788B930
:108700002EBBD7BC82BE2EC0DBC188C333C5DCC63E
:1087100083C825CAC2CB59CDEACE73D0F3D16AD370
:10872000D6D437D68BD7D2D80CDA36DB51DC5BDD2A
:1087300054DE3BDF0FE0D0E07EE116E29AE208E390
:1087400061E3A3E3CEE3E3E3E1E3C8E397E350E3CC
:10875000F1E27BE2EEE14BE191E0C1DFDCDEE2DD64
:10876000D4DCB2DB7DDA35D9DDD774D6FBD474D353
:10877000E0D13FD094CEDFCC21CB5CC992C7C3C53A
:10878000F2C31FC24CC07BBEADBCE4BA22B967B70E
:10879000B7B511B479B2EFB075AF0CAEB7AC76AB7C
:1087A0004CAA39A93FA85FA79AA6F3A569A5FFA47B
:1087B000B4A48BA484A49FA4DEA441A5C9A576A6D5
:1087C00048A741A85FA9A3AA0DAC9EAD53AF2EB197
:1087D0002EB352B59AB705BA91BC3EBF0CC2F8C4CD
:1087E00001C826CB66CEBFD12FD5B5D84FDCFADF76
:1087F000B6E37FE754EB33EF19F304F7F2FAE1FE47
:10880000CE02B706990A720E40120016B0194E1D1C
:10881000D62048249F27DB2AF92DF730D3338A3618
:108820001C39853BC43DD93FC04178430145594679
:108830007E4771482F49B8490C4A2A4A114AC24911
:108840003C4980488D47644606457343AC41B23F7E
:10885000853D283B9B38E135FA32E82FAD2C4C2979
:10886000C5251D22531E6D1A6A164F121E0ED909F8
:1088700084052101B4FC3EF8C4F347EFCCEA55E689
:10888000E5E180DD27D9E0D4ABD08DCC87C89EC48C
:10889000D3C02ABDA5B946B611B306B02AAD7CAA8D
:1088A00001A8B9A5A7A3CCA128A0BF9E919D9E9C7D
:1088B000E89B709B359B3A9B7C9BFD9BBD9CBB9D25
:1088C000F79E70A025A216A441A6A5A841AB12AEA2
:1088D00019B151B4BAB752BB15BF03C317C750CBB8
:1088E000ACCF26D4BDD86DDD33E20DE7F7EBEEF06B
:1088F000EEF5F6FA00000A05120A120F0914F31831
:10890000CD1D93224327DA2B5430B034E938FD3C97
:10891000EB40AE444648AF4BE74EEE51BF545B5779
:10892000BF59EA5BDB5D905F0961456243630364A5
:108930008464C664CB649064186462636F6241614E
:10894000D85F345E595C475AFF578455D652FA4F68
:10895000EF4CBA495B46D6422D3F623B79377333C1
:10896000552F202BD92680221B1EAB193415B91088
:108970003C0CC2074C03DFFE7CFA27F6E2F1B1EDB6
:1089800096E993E5ADE1E3DD3BDAB4D653D318D0F5
:1089900006CD1FCA65C7D8C47BC24EC054BE8DBCAD
:1089A000FABA9CB973B880B7C4B63EB6EFB5D6B5BF
:1089B000F4B548B6D1B68FB782B8A7B9FFBA88BCAC
:1089C00040BE27C03CC27BC4E4C676C92DCC09CFCB
:1089D00007D225D561D8B8DB2ADFB2E250E600EA3B
:1089E000C0ED8EF167F549F932FD1F010E05FC0857
:1089F000E70CCD10AC1481184A1C0620B1234B277C
:108A0000D12A412E9A31DA34FF37083BF43DC24077
:108A10006F43FB456648AE4AD24CD24EAD506252CF
:108A2000F3535D55A156BF57B8588A59375ABF5AA4
:108A3000225B615B7C5B755B4C5B015B975A0D5AFB
:108A40006659A158C157C756B4558A544953F45171
:108A50008B50114F874DEF4B494A9948DE461C45D4
:108A600053438541B43FE13D0E3C3D3A6E38A43658
:108A7000DF3421336C31C12F202E8C2C052B8C2917
:108A80002328CB2683254E242C231E2224213F205D
:108A90006F1FB51E121E851D0F1DB01C691C381CD2
:108AA0001F1C1D1C321C5D1C9F1CF81C661DEA1D32
:108AB000821E301FF11FC520AC21A522AF23CA247E
:108AC000F4252E277528C9292A2B962C0D2E8D2F9B
:108AD0001631A7323E34DB357D372439CD3A783C28
:108AE000253ED23F7E412943D24478461A48B849B0
:108AF000514BE34C6F4EF44F7151E5525154B35505
:108B00000B5759589D59D55A025C235D385E415F19
:108B10003E602E611262EA62B46373642465C965C3
:108B20006266EF666F67E4674D68AA68FD6844692E
:108B30008169B369DC69FB69116A1F6A246A216A69
:108B4000166A056AED69CE69AA6981695369216966
:108B5000EA68B16874683568F367B0676C6727675F
:108B6000E1669B6656661266CE658C654B650D6543
:108B7000D164986461642D64FD63D163A8638363E9
:108B8000626346632D631A630A630063FA62F962E3
:108B9000FC620563126324633A63566375639A63E8
:108BA000C363F063226457649164CF6410655565B4
:108BB0009D65E96538668966DE6635678F67EA67B1
:108BC0004868A86809696C69D069356A9B6A026B54
:108BD000696BD16B396CA16C096D706DD76D3E6E90
:108BE000A46E096F6D6FCF6F31709170F0704D7121
:108BF000A87102725A72B07204735673A673F4733A
:108C00003F748974D074157558759875D775137637
:108C10004C768476B976ED761E774C777977A477A3
:108C2000CD77F47719783C785E787D789B78B87842
:108C3000D378EC7805791B793179467959796B7954
:108C40007D798D799D79AC79BA79C779D579E179D2
:108C5000ED79F979047A107A1B7A257A307A3B7AA1
:108C6000467A507A5B7A667A717A7C7A887A947AD4
:108C7000A07AAC7AB97AC67AD37AE17AEF7AFE7AB8
:108C80000D7B1C7B2C7B3C7B4D7B5E7B707B827BDE
:108C9000947BA77BBA7BCE7BE27BF67B0B7C207C34
:108CA000357C4B7C617C777C8E7CA57CBC7CD37CCA
:108CB000EA7C027D197D317D497D617D7A7D927DE1
:108CC000AA7DC27DDB7DF37D0B7E237E3C7E547EC0
:108CD0006C7E837E9B7EB37ECA7EE27EF97E107FB1
:108CE000277F3D7F547F6A7F807F967FAB7FC07FE9
:108CF000D67FEA7FEA7F0000000001010202030341
:108D00000404050506060707080809090A0A0B0BEB
:108D10000C0C0D0D0E0E0F0F10101111121213135B
:108D20001414151516161717181819191A1A1B1BCB
:108D30001C1C1D1D1E1E1F1F20202121222223233B
:108D40002424252526262727282829292A2A2B2BAB
:108D50002C2C2D2D2E2E2F2F30303131323233331B
:108D60003434353536363737383839393A3A3B3B8B
:108D70003C3C3D3D3E3E3F3F4040414142424343FB
:108D80004444454546464747484849494A4A4B4B6B
:108D90004C4C4D4D4E4E4F4F5050515152525353DB
:108DA0005454555556565757585859595A5A5B5B4B
:108DB0005C5C5D5D5E5E5F5F6060616162626363BB
:108DC0006464656566666767686869696A6A6B6B2B
:108DD0006C6C6D6D6E6E6F6F70707171727273739B
:108DE0007474757576767777787879797A7A7B7B0B
:108DF0007C7C7D7D7E7E7F7F80808181828283837B
:108E00008484858586868787888889898A8A8B8BEA
:108E10008C8C8D8D8E8E8F8F90909191929293935A
:108E20009494959596969797989899999A9A9B9BCA
:108E30009C9C9D9D9E9E9F9FA0A0A1A1A2A2A3A33A
:108E4000A4A4A5A5A6A6A7A7A8A8A9A9AAAAABABAA
:108E5000ACACADADAEAEAFAFB0B0B1B1B2B2B3B31A
:108E6000B4B4B5B5B6B6B7B7B8B8B9B9BABABBBB8A
:108E7000BCBCBDBDBEBEBFBFC0C0C1C1C2C2C3C3FA
:108E8000C4C4C5C5C6C6C7C7C8C8C9C9CACACBCB6A
:108E9000CCCCCDCDCECECFCFD0D0D1D1D2D2D3D3DA
:108EA000D4D4D5D5D6D6D7D7D8D8D9D9DADADBDB4A
:108EB000DCDCDDDDDEDEDFDFE0E0E1E1E2E2E3E3BA
:108EC000E4E4E5E5E6E6E7E7E8E8E9E9EAEAEBEB2A
:108ED000ECECEDEDEEEEEFEFF0F0F1F1F2F2F3F39A
:108EE000F4F4F5F5F6F6F7F7F8F8F9F9FAFAFBFB0A
:108EF000FCFCFDFDFEFEFFFFFFFF0000EC0A000092
:108F00004B0B0000AD0B0000120C00007B0C0000AE
:108F1000E70C0000570D0000CB0D0000430E0000D1
:108F2000BF0E00003F0F0000C40F00004C100000F7
:108F3000DA1000006C11000004120000A012000002
:108F400042130000E91300009614000049150000C8
:108F500002160000C1160000871700005318000019
:108F600026190000011A0000E31A0000CC1B0000C3
:108F7000BD1C0000B71D0000B91E0000C41F00008A
:108F8000D8200000F52100001C2300004D24000023
:108F900088250000CE2600001F2800007C29000044
:108FA000E42A0000592C0000DA2D0000682F000090
:108FB00004310000AE320000663400002D3600009F
:108FC00003380000EA390000E13B0000E93D000001
:108FD000034000002F4200006D440000C046000026
:108FE00026490000A14B0000324E0000DA5000007C
:108FF000985300006E5600005C590000645C00004D
:10900000875F0000C56200001E66000095690000D1
:109010002A6D0000DE700000B3740000A878000024
:10902000C07C0000FC8000005C850000E28900003C
:10903000908E00006693000066980000929D0000EC
:10904000EAA2000071A8000028AE000011B40000E0
:109050002CBA00007DC0000005C70000C6CD00008E
:10906000C1D40000F9DB00006FE3000026EB000034
:1090700021F3000060FB0000E7030100B90C0100D0
:10908000D6150100431F010002290100163301001B
:10909000813D0100474801006A530100ED5E010077
:1090A000D56A010024770100DF83010007910100E8
:1090B000A29E0100B3AC01003FBB010048CA010001
:1090C000D4D90100E7E9010086FA0100B50B0200DE
:1090D0007A1D0200D92F0200D74202007A56020000
:1090E000C86A0200C67F02007A950200EBAB02005C
:1090F0001FC302001DDB0200EAF302008F0D030014
:10910000132803007D430300D65F0300247D030082
:10911000719B0300C5BA030029DB0300A7FC030011
:10912000471F040014430400186804005E8E040006
:10913000F0B50400D9DE040026090500E23405007C
:109140001A620500DB90050032C105002DF3050011
:10915000DA260600475C060085930600A2CC0600CE
:10916000AF070700BE440700DE83070023C50700E2
:109170009F080800644E0800889608001EE1080059
:109180003C2E0900F87D090068D00900A5250A00D9
:10919000C57D0A00E3D80A0018370B0080980B0041
:1091A00035FD0B0055650C00FDD00C004D400D0049
:1091B00063B30D00602A0E0067A50E009B240F000C
:1091C0001FA80F001A301000B1BC10000E4E110085
:1091D00059E41100BD7F12006720130084C61300FC
:1091E00044721400D723150071DB15004599160051
:1091F0008A5D17007828180048FA180036D319003D
:1092000080B31A00679B1B002B8B1C0011831D0071
:1092100061831E00638C1F00629E2000ADB9210097
:1092200094DE22006C0D240089462500468A260023
:10923000FED8270012332900E3982A00D70A2C0011
:1092400059892D00D5142F00BCAD30008254320056
:109250009F09340092CD3500D9A03700FA83390038
:1092600080773B00F87B3D00F5913F0010BA41004C
:10927000E6F443001A43460054A54800411C4B0045
:1092800096A84D000D4B50006504530066D555005F
:10929000DCBE58009DC15B0084DE5E007416620077
:1092A000586A650022DB6800CF696C0060177000A7
:1092B000E3E473006CD377001CE47B001A18800091
:1092C00099708400D6EE880018948D00B3619200E6
:1092D000065997007A7B9C0086CAA100AD47A7007B
:1092E00080F4AC009CD2B200AFE3B8007229BF009A
:1092F000AEA5C5003E5ACC000B49D3000D74DA0070
:10930000000814CC345CA4400410F8F8EC14EC54BD
:10931000A0C05834B0ACA8402004F0CCF84000F411
:10932000B024D4C03C34FCB8D05854CCACF80008BD
:10933000F010000428F03C180434C8A00470D8AC25
:109340003834F4E8C8E8F814C8F01818BC64F4A875
:10935000343CEC0CC0E0143CACC06838F0F4D8C02D
:109360002C08E000502028D0F808E80018C46CC48D
:10937000E4E82834C4B04CECFC1CA4DC086C28B035
:10938000E020E41CB0E414EC1C581008D4D420BC39
:10939000F8F01444F8A024D8D4D840F4A42450D42D
:1093A000DCE81C1838E0001028E4A8F85434F80071
:1093B000F808F8E80CF01058F014DCE40CF4C8C01D
:1093C0005828C4BC104CDCEC20E04824E8CC1C2419
:1093D00024B42854F824E0BCD450F8D838FCFCE07D
:1093E00008F0D8F414D43010BCF80CF810D4E00C09
:1093F000240CF4D82010F44CE0201498181830E411
:10940000A45838E0E8F0F8ECAC380CFCD81008248C
:10941000B0F834F4DC14E818C80C1CDC0040CCD4E0
:1094200044E0F0E808402CD0DC2010D830DCE834F0
:1094300028D8B43CE8FC38ACF41CF42004F8C40C84
:10944000301CCCDCDC3820BCEC34DC14E8F83CD438
:10945000B43C4004D8F808082CECC43020F8F4E000
:10946000041CF4F0FCF8D050F4BC242CDC041800EC
:10947000D0D0282CA8E82018FCD4C8F43C10AC109C
:1094800018F4E4301CE02CCC0440FCF8C044D800B4
:109490000804E8E04C08ECF8D83018E824E8BC20D0
:1094A0001CD424D8D038F0BC34D0E0FC08E80C0838
:1094B000FC0C04E84018F4C81C24F8D41C2CF40854
:1094C000EC38D4CC4804F84CC8F41C1420E0ECF878
:1094D00018E8E418B0FC18BCDC00CCF038C8CC2C80
:1094E00010F4003800D42CD8E80020EC4010ECF840
:1094F0000C0C10C81834E81444F4E4F4142C04D010
:10950000FCD8E40C0CB4B04C18C8E01C00D0E80443
:10951000FC042014D818D00420C00C1810DC04E877
:109520000C08E03808F410E82CD01818AC500CD413
:1095300010E8E818F8FC080824E8DCFC20ECF8E463
:1095400038ACF858E8F8D80438C80434E8D054F0F7
:10955000DCE83C0CC858DCD8E4F43018C8EC201423
:10956000B028FCE8E8E8E8F040C8BC0028C00830B3
:10957000D0BC3C04FCC410F41CE42428ECE4DC3C27
:1095800040BCF0EC4C1CFC00BC242C08E80CEC00AB
:109590001C04D0EC202000DC0038E4B01C24F824AB
:1095A000CCF030B43CF0A40C3010C80824DCC43C2F
:1095B000E0F84CD0D00C2028A40C24D444F0E400D3
:1095C000C82840D0080038F804C438F4DC3C30D453
:1095D000F020F8D03CD0F44808D8E4081434B4E4BF
:1095E00048F4ECFC1CCCDC48FCECE828E0D4FCECB7
:1095F00004F408001424C4CC1410E820CCFC54E477
:10960000C8FCF01434F008E4E844C4D81C0C400C46
:10961000E0F4E028E40C4CB81C40E400D0DC102856
:109620001CB4F03C00B818FCBC343428CCC82CE87E
:109630001418F8FC0828F4DCC8F01C003CE0EC34FA
:1096400024D4BC185000F81808C4DC005CC0D03822
:10965000F4FC04A8E434EC1834ECE8082CF0E8FC42
:10966000FC3008E40C04B81C24EC2800F420DCE0F6
:10967000F01810F43C10D420E8C010E43818D000E2
:1096800008D8C02018D02440C4B03C20D0F83028DE
:10969000E00018CCFCECE454DC201CC0F00C10E81A
:1096A000EC4CF8F040F8D428E4E808240CD0100082
:1096B000B8202414E810F0DCF4F0D8001820081CBE
:1096C000ECD0E80008E81034E0E8FC20E4FC34E8E2
:1096D0000800F430A40C58C8044CE4E0E80CF4E4AE
:1096E00024C4E05C24B0E8F00404FC34C4003CD0A2
:1096F00000C0FC241CEC18DC0800B85008C434F08E
:10970000FC00E80818F8000834BCF018C4F0301861
:10971000DCF024B40C3404C0DC2420E0E41CD4ECE1
:1097200058FCBC040CE01850A0B844500008C4FC1D
:109730001CD854E8D434DC2CFCC030D8FC34E8BC51
:109740001C20F0CC1024002000B81018EC141C00D1
:10975000F0E4F810D820C8E44014E8B0F448040459
:10976000E40418200CB4DC4C00F0F4F814D010E43D
:10977000F0F80C28D0EC48E0B4500CC8103CF4FCD5
:10978000FCC8DC48ECD82C18D40CF4F40CF83C34AD
:10979000F0CC0438F8F044DCE80414E4E4EC2CC821
:1097A000EC3000E8EC0CE8E034DC003CF8D408F8DD
:1097B00018FCBC1CD41050B8C42C38D808081CD4D1
:1097C00020FCD83CDC2434C030BCF008CC28F4ECBD
:1097D00010F0180CE028FCC42C34E8D80428F0D889
:1097E0004424C4DCDC202804C8D44038D0D4241855
:1097F000D4E8041CE010E80C28E8C4C03C38F4E8C5
:10980000B03834D828E80434C8FC28EC000CDC5804
:1098100008CC0CE81018E4F00030F4CC5804A03860
:10982000E80830A8EC3018ECC050CCE43CDCFC304C
:10983000D0DCFC0828ECD414080CACFC5004DCE0B0
:109840001C1008F8D82438ECF8FC001818D018DCE4
:109850001014C058F4EC28B84818B0281404ECF4DC
:1098600008F0BC4008E408E810CCD43CE40834BC60
:109870000030DCF01C04F00438C8F000ECFC10F4FC
:1098800020F4F404FC0CE0E8042038C8C03C18F0D4
:10989000DCF8082028E0D814E0F42C101844B4ECCC
:1098A00054C8CC084C20F404DCD464B0D85818E474
:1098B000ECE82CBCFC08142CD4C01C2CDCC0081810
:1098C0000C30D4CCF804D8FCF42034FCCCF810BC18
:1098D000CC44F8142CC00028F8A83860D8F0FCE478
:1098E00058D8E014300C50BCC8FC00FCE84430D020
:1098F00028FCF4E4C8282404F818BC080404F8EC94
:10990000F4E4F84CC0E8D8005008DC38F0F0C4CCDF
:1099100028F03424F8F0D8CCF4E01814F8EC50D047
:10992000C82420EC240400FC00C4080430E40460D3
:10993000E4B0CC1414242000F0240C002498086413
:10994000BC005CBCC00020DC0C0CCC3810B4D810BF
:1099500008241CC42C28B0B0002044E4C42C38C413
:10996000CC00F01C000C30CCECD8F0382018C0E44F
:109970002CE0F418B404482004B80C08E044D0F4F7
:109980004C00FC24B02008D84C18E818E4E4E41C8F
:1099900038C4F45000FCC8F428C838F8FC30D0C8EB
:1099A000CC2828E0280CC80804D80C080004D830BB
:1099B000F0BC0C34FCD40CE4E048F4C02008A43C17
:1099C0005408A41030F8D4F8104CD8D0340804EC63
:1099D000D82C1828D4B83424DC0028F40C24DCC497
:1099E000640C98006400D8CCE44800E408E01C183B
:1099F00000C4E45800A05014A41C1CE40818BC04C3
:109A000008DCEC24E8F8E82CDC042C0804F0ECEC8E
:109A1000180424E4EC0CEC2010D8182CE4B82834FA
:109A2000F800042438DCC42C3CDCE018FCE40C0C0A
:109A3000D40820F0E824E0EC041404FC0020D8E46E
:109A4000141CCCE80C00E4F4E8EC040C08F4F8086E
:109A50000804F818F4FC08D428280CD0B81854D0FE
:109A6000D440E0F434E4F0240CE4341CCC0800E0EE
:109A7000084CE0C0002CE0D0DC2438F8C8F83C04E6
:109A8000DC04141400C8082408E4FC1814D4FC0CEA
:109A9000C834FCC0382004FCF00CD81420D8EC24C6
:109AA000DCF83CECE8F80024BCF81CEC10ECEC18FA
:109AB0000C0CDC001CD4E404F84008C4F8080808C6
:109AC000FC14DC1C08DC3014C0201CD41420D4E8A6
:109AD000083414E410D814081410B8E84418E0EC62
